{"abi":[{"type":"constructor","inputs":[{"name":"_signer","type":"address","internalType":"address"},{"name":"_initialVirtualEtherBalance","type":"uint256","internalType":"uint256"},{"name":"_initialTokensForUniswapBalance","type":"uint256","internalType":"uint256"},{"name":"_initialTokensForBondingCurveBalance","type":"uint256","internalType":"uint256"},{"name":"_uniswapV2Router02","type":"address","internalType":"address"},{"name":"_tradingFeeBasisPoints","type":"uint256","internalType":"uint256"}],"stateMutability":"nonpayable"},{"type":"function","name":"CREATE_TYPEHASH","inputs":[],"outputs":[{"name":"","type":"bytes32","internalType":"bytes32"}],"stateMutability":"view"},{"type":"function","name":"DOMAIN_SEPARATOR","inputs":[],"outputs":[{"name":"domainSeparator","type":"bytes32","internalType":"bytes32"}],"stateMutability":"view"},{"type":"function","name":"INIT_CODE_PAIR_HASH","inputs":[],"outputs":[{"name":"","type":"bytes32","internalType":"bytes32"}],"stateMutability":"view"},{"type":"function","name":"burnAddress","inputs":[],"outputs":[{"name":"","type":"address","internalType":"address"}],"stateMutability":"view"},{"type":"function","name":"createToken","inputs":[{"name":"name","type":"string","internalType":"string"},{"name":"symbol","type":"string","internalType":"string"},{"name":"deadline","type":"uint256","internalType":"uint256"},{"name":"etherFee","type":"uint256","internalType":"uint256"},{"name":"etherBuy","type":"uint256","internalType":"uint256"},{"name":"initialMaxWalletBalance","type":"uint256","internalType":"uint256"},{"name":"isDevLockup","type":"bool","internalType":"bool"},{"name":"v","type":"uint8","internalType":"uint8"},{"name":"r","type":"bytes32","internalType":"bytes32"},{"name":"s","type":"bytes32","internalType":"bytes32"}],"outputs":[],"stateMutability":"payable"},{"type":"function","name":"creatorLocks","inputs":[{"name":"","type":"address","internalType":"address"}],"outputs":[{"name":"amount","type":"uint256","internalType":"uint256"},{"name":"creator","type":"address","internalType":"address"}],"stateMutability":"view"},{"type":"function","name":"eip712Domain","inputs":[],"outputs":[{"name":"fields","type":"bytes1","internalType":"bytes1"},{"name":"name","type":"string","internalType":"string"},{"name":"version","type":"string","internalType":"string"},{"name":"chainId","type":"uint256","internalType":"uint256"},{"name":"verifyingContract","type":"address","internalType":"address"},{"name":"salt","type":"bytes32","internalType":"bytes32"},{"name":"extensions","type":"uint256[]","internalType":"uint256[]"}],"stateMutability":"view"},{"type":"function","name":"etherFeeBalance","inputs":[],"outputs":[{"name":"","type":"uint256","internalType":"uint256"}],"stateMutability":"view"},{"type":"function","name":"flipTokenCreationEnabled","inputs":[],"outputs":[],"stateMutability":"nonpayable"},{"type":"function","name":"flipTradingEnabled","inputs":[],"outputs":[],"stateMutability":"nonpayable"},{"type":"function","name":"getAmountOut","inputs":[{"name":"amountIn","type":"uint256","internalType":"uint256"},{"name":"reserveIn","type":"uint256","internalType":"uint256"},{"name":"reserveOut","type":"uint256","internalType":"uint256"}],"outputs":[{"name":"amountOut","type":"uint256","internalType":"uint256"}],"stateMutability":"pure"},{"type":"function","name":"getCreateTokenRequestTypedDataHash","inputs":[{"name":"_createTokenRequest","type":"tuple","internalType":"struct ParlayCoreSimple.CreateTokenRequest","components":[{"name":"name","type":"string","internalType":"string"},{"name":"symbol","type":"string","internalType":"string"},{"name":"deadline","type":"uint256","internalType":"uint256"},{"name":"creator","type":"address","internalType":"address"},{"name":"creatorSignatureNonce","type":"uint256","internalType":"uint256"},{"name":"etherFee","type":"uint256","internalType":"uint256"},{"name":"etherBuy","type":"uint256","internalType":"uint256"},{"name":"initialMaxWalletBalance","type":"uint256","internalType":"uint256"},{"name":"isDevLockup","type":"bool","internalType":"bool"}]}],"outputs":[{"name":"typedDataHash","type":"bytes32","internalType":"bytes32"}],"stateMutability":"view"},{"type":"function","name":"getPairAddress","inputs":[{"name":"tokenA","type":"address","internalType":"address"}],"outputs":[{"name":"pair","type":"address","internalType":"address"}],"stateMutability":"view"},{"type":"function","name":"initialTokensForBondingCurveBalance","inputs":[],"outputs":[{"name":"","type":"uint256","internalType":"uint256"}],"stateMutability":"view"},{"type":"function","name":"initialTokensForUniswapBalance","inputs":[],"outputs":[{"name":"","type":"uint256","internalType":"uint256"}],"stateMutability":"view"},{"type":"function","name":"initialVirtualEtherBalance","inputs":[],"outputs":[{"name":"","type":"uint256","internalType":"uint256"}],"stateMutability":"view"},{"type":"function","name":"owner","inputs":[],"outputs":[{"name":"","type":"address","internalType":"address"}],"stateMutability":"view"},{"type":"function","name":"renounceOwnership","inputs":[],"outputs":[],"stateMutability":"nonpayable"},{"type":"function","name":"seedLiquidity","inputs":[{"name":"tokenAddress","type":"address","internalType":"address"}],"outputs":[],"stateMutability":"nonpayable"},{"type":"function","name":"setSigner","inputs":[{"name":"_signer","type":"address","internalType":"address"}],"outputs":[],"stateMutability":"nonpayable"},{"type":"function","name":"setTokenInitializer","inputs":[{"name":"_initialVirtualEtherBalance","type":"uint256","internalType":"uint256"},{"name":"_initialTokensForUniswapBalance","type":"uint256","internalType":"uint256"},{"name":"_initialTokensForBondingCurveBalance","type":"uint256","internalType":"uint256"}],"outputs":[],"stateMutability":"nonpayable"},{"type":"function","name":"setTradingFeeBasisPoints","inputs":[{"name":"_tradingFeeBasisPoints","type":"uint256","internalType":"uint256"}],"outputs":[],"stateMutability":"nonpayable"},{"type":"function","name":"signatureNonces","inputs":[{"name":"","type":"address","internalType":"address"}],"outputs":[{"name":"","type":"uint256","internalType":"uint256"}],"stateMutability":"view"},{"type":"function","name":"signer","inputs":[],"outputs":[{"name":"","type":"address","internalType":"address"}],"stateMutability":"view"},{"type":"function","name":"swapExactETHForTokens","inputs":[{"name":"tokenAddress","type":"address","internalType":"address"},{"name":"amountOutMin","type":"uint256","internalType":"uint256"}],"outputs":[],"stateMutability":"payable"},{"type":"function","name":"swapExactTokensForETH","inputs":[{"name":"tokenAddress","type":"address","internalType":"address"},{"name":"amountIn","type":"uint256","internalType":"uint256"},{"name":"amountOutMin","type":"uint256","internalType":"uint256"}],"outputs":[],"stateMutability":"nonpayable"},{"type":"function","name":"tokenCreationEnabled","inputs":[],"outputs":[{"name":"","type":"bool","internalType":"bool"}],"stateMutability":"view"},{"type":"function","name":"tokens","inputs":[{"name":"","type":"address","internalType":"address"}],"outputs":[{"name":"etherBalance","type":"uint256","internalType":"uint256"},{"name":"virtualEtherBalance","type":"uint256","internalType":"uint256"},{"name":"tokensForUniswapBalance","type":"uint256","internalType":"uint256"},{"name":"tokensForBondingCurveBalance","type":"uint256","internalType":"uint256"}],"stateMutability":"view"},{"type":"function","name":"tradingEnabled","inputs":[],"outputs":[{"name":"","type":"bool","internalType":"bool"}],"stateMutability":"view"},{"type":"function","name":"tradingFeeBasisPoints","inputs":[],"outputs":[{"name":"","type":"uint256","internalType":"uint256"}],"stateMutability":"view"},{"type":"function","name":"transferOwnership","inputs":[{"name":"newOwner","type":"address","internalType":"address"}],"outputs":[],"stateMutability":"nonpayable"},{"type":"function","name":"uniswapV2Router02","inputs":[],"outputs":[{"name":"","type":"address","internalType":"address"}],"stateMutability":"view"},{"type":"function","name":"withdrawEtherFee","inputs":[],"outputs":[],"stateMutability":"nonpayable"},{"type":"event","name":"EIP712DomainChanged","inputs":[],"anonymous":false},{"type":"event","name":"FeesWithdrawn","inputs":[{"name":"amount","type":"uint256","indexed":true,"internalType":"uint256"}],"anonymous":false},{"type":"event","name":"OwnershipTransferred","inputs":[{"name":"previousOwner","type":"address","indexed":true,"internalType":"address"},{"name":"newOwner","type":"address","indexed":true,"internalType":"address"}],"anonymous":false},{"type":"event","name":"SignerChanged","inputs":[{"name":"oldSigner","type":"address","indexed":true,"internalType":"address"},{"name":"newSigner","type":"address","indexed":true,"internalType":"address"}],"anonymous":false},{"type":"event","name":"TokenCreated","inputs":[{"name":"digest","type":"bytes32","indexed":true,"internalType":"bytes32"},{"name":"token","type":"address","indexed":true,"internalType":"address"},{"name":"timestamp","type":"uint256","indexed":true,"internalType":"uint256"},{"name":"totalSupply","type":"uint256","indexed":false,"internalType":"uint256"},{"name":"initialVirtualEtherBalance","type":"uint256","indexed":false,"internalType":"uint256"},{"name":"initialTokensForUniswapBalance","type":"uint256","indexed":false,"internalType":"uint256"},{"name":"initialTokensForBondingCurveBalance","type":"uint256","indexed":false,"internalType":"uint256"},{"name":"uniswapV2Pair","type":"address","indexed":false,"internalType":"address"}],"anonymous":false},{"type":"event","name":"TokenCreationEnabledToggled","inputs":[{"name":"newState","type":"bool","indexed":false,"internalType":"bool"}],"anonymous":false},{"type":"event","name":"TokenInitializerChanged","inputs":[{"name":"initialVirtualEtherBalance","type":"uint256","indexed":true,"internalType":"uint256"},{"name":"initialTokensForUniswapBalance","type":"uint256","indexed":true,"internalType":"uint256"},{"name":"initialTokensForBondingCurveBalance","type":"uint256","indexed":true,"internalType":"uint256"}],"anonymous":false},{"type":"event","name":"TokenSeeded","inputs":[{"name":"tokenAddress","type":"address","indexed":true,"internalType":"address"}],"anonymous":false},{"type":"event","name":"TradeExecuted","inputs":[{"name":"token","type":"address","indexed":true,"internalType":"address"},{"name":"user","type":"address","indexed":true,"internalType":"address"},{"name":"etherAmountIn","type":"uint256","indexed":false,"internalType":"uint256"},{"name":"etherAmountOut","type":"uint256","indexed":false,"internalType":"uint256"},{"name":"tokenAmountIn","type":"uint256","indexed":false,"internalType":"uint256"},{"name":"tokenAmountOut","type":"uint256","indexed":false,"internalType":"uint256"},{"name":"timestamp","type":"uint256","indexed":false,"internalType":"uint256"}],"anonymous":false},{"type":"event","name":"TradingEnabledToggled","inputs":[{"name":"newState","type":"bool","indexed":false,"internalType":"bool"}],"anonymous":false},{"type":"error","name":"ECDSAInvalidSignature","inputs":[]},{"type":"error","name":"ECDSAInvalidSignatureLength","inputs":[{"name":"length","type":"uint256","internalType":"uint256"}]},{"type":"error","name":"ECDSAInvalidSignatureS","inputs":[{"name":"s","type":"bytes32","internalType":"bytes32"}]},{"type":"error","name":"InvalidShortString","inputs":[]},{"type":"error","name":"OwnableInvalidOwner","inputs":[{"name":"owner","type":"address","internalType":"address"}]},{"type":"error","name":"OwnableUnauthorizedAccount","inputs":[{"name":"account","type":"address","internalType":"address"}]},{"type":"error","name":"StringTooLong","inputs":[{"name":"str","type":"string","internalType":"string"}]}],"bytecode":{"object":"0x6101a080604052346102485760c0816144468038038091610020828561024c565b8339810103126102485761003381610283565b906020810151604082015160608301519160a061005260808601610283565b9401519460405161006460408261024c565b6010815260208101906f5061726c6179436f726553696d706c6560801b82526040519161009260408461024c565b600183526020830191603160f81b83523315610235575f8054336001600160a01b0319821681178355916001600160a01b03909116907f8be0079c531659141344cd1fd0a4f28419497f9722a3daafe3b4186f6b6457e09080a36100f581610297565b6101205261010284610432565b61014052519020918260e05251902080610100524660a0526040519060208201927f8b73c3c69bb8fe3d512ecc4cf759cc79239f7b179b0ffacaa9a75d522b39400f8452604083015260608201524660808201523060a082015260a0815261016b60c08261024c565b5190206080523060c05261dead61018052600680546001600160a01b0319166001600160a01b0392909216919091179055600955600a55600b5561016052600855600c805461ffff1916610101179055604051613edb908161056b823960805181611e49015260a05181611f06015260c05181611e13015260e05181611e9801526101005181611ebe015261012051816113f20152610140518161141b015261016051818181610a8401528181611198015261125d015261018051818181610b0c01526117440152f35b631e4fbdf760e01b5f525f60045260245ffd5b5f80fd5b601f909101601f19168101906001600160401b0382119082101761026f57604052565b634e487b7160e01b5f52604160045260245ffd5b51906001600160a01b038216820361024857565b908151602081105f14610311575090601f8151116102d15760208151910151602082106102c2571790565b5f198260200360031b1b161790565b604460209160405192839163305a27a960e01b83528160048401528051918291826024860152018484015e5f828201840152601f01601f19168101030190fd5b6001600160401b03811161026f57600154600181811c91168015610428575b602082101461041457601f81116103e1575b50602092601f821160011461038057928192935f92610375575b50508160011b915f199060031b1c19161760015560ff90565b015190505f8061035c565b601f1982169360015f52805f20915f5b8681106103c957508360019596106103b1575b505050811b0160015560ff90565b01515f1960f88460031b161c191690555f80806103a3565b91926020600181928685015181550194019201610390565b60015f52601f60205f20910160051c810190601f830160051c015b8181106104095750610342565b5f81556001016103fc565b634e487b7160e01b5f52602260045260245ffd5b90607f1690610330565b908151602081105f1461045d575090601f8151116102d15760208151910151602082106102c2571790565b6001600160401b03811161026f57600254600181811c91168015610560575b602082101461041457601f811161052d575b50602092601f82116001146104cc57928192935f926104c1575b50508160011b915f199060031b1c19161760025560ff90565b015190505f806104a8565b601f1982169360025f52805f20915f5b86811061051557508360019596106104fd575b505050811b0160025560ff90565b01515f1960f88460031b161c191690555f80806104ef565b919260206001819286850151815501940192016104dc565b60025f52601f60205f20910160051c810190601f830160051c015b818110610555575061048e565b5f8155600101610548565b90607f169061047c56fe6080806040526004361015610012575f80fd5b5f905f3560e01c908163017c7485146119c757508063030858d81461195e578063054d50d4146119455780630fbf34af146118fc57806311ba1741146118c2578063238ac9331461189a57806324b269071461187d5780633644e5151461185b5780634ada218b146118395780635855a25a146117ff5780636559ea84146117b65780636c19e7831461177357806370d5ae051461172f578063715018a6146116d857806373df616214611675578063789e221f146114d257806384b0196e146113da57806385e694b6146112345780638cedc5ad146112135780638da5cb5b146111ec578063948f32c2146111c7578063a7c6402c14611183578063b6340fdd14611129578063b79c48e514610feb578063c038847a14610d78578063da72f55814610d5b578063dbd8483d14610d23578063dfd41edf14610d06578063e0a6604a146109e8578063e48603391461098c578063e5a238ec1461096e578063f2fde38b146108e85763f884834614610189575f80fd5b6101403660031901126108e5576004356001600160401b0381116108e1576101b5903690600401611ac5565b6024356001600160401b0381116108dd576101d4903690600401611ac5565b604492919235606435946084359360a43560c4359687151588036108d95760e4359460ff861686036108d55760ff600c5460081c16156108815742811061083c5761021f888b611b19565b34036107e9578861078c575b338b52600460205260408b20805491905f1983146107785782896102ad6102e1948f8f8f8b9061029f938f8f6102758f91926102ea9f9360429e6001610284960190553691611a4d565b60208151910120993691611a4d565b6020815191012098604051988997602089019b33928d611d5b565b03601f198101835282611a11565b5190206102b8611e10565b906040519161190160f01b83526002830152602282015220966101243590610104359089612122565b909291926121a4565b6006546001600160a01b039081169116036107335761030e600a54600b5490611b19565b9582156106bf5760405194610f0b94858701958787106001600160401b038811176106ab57926103566103649389989796936060966122198b39608089526080890191611dca565b918683036020880152611dca565b928760408201520152039087f080156106a0576001600160a01b0316945b60095495600a54600b549060405192608084018481106001600160401b0382111761068c57916103fd959493916003936040528b8552602085019b8c52604085019182526060850192835260018060a01b03169a8b8d528360205260408d209451855551600185015551600284015551910155600754611b19565b6007556040516342f34a5b60e11b81526004810186905290602082602481305afa801561064c578692889161065d575b50600954600a54600b549160405196875260208701526040860152606085015260018060a01b031660808401527f8363d4f3dbd2468bc6f2965f8525dfd3305f6cd2c0a35676659f26f7172c896a60a04294a480610489578380f35b811561065757305b83855260036020526040852090610518600383018054906104b3821515611c66565b61050e896127106104c66008548a611af2565b04936104d2858a611ca8565b976105076104e4600283015484611b19565b996104f283549b8c83611b26565b9a8b955061050285871115611d01565b611b19565b9055611ca8565b9055600754611b19565b60075560405163a9059cbb60e01b81526001600160a01b038216600482015260248101839052906020826044818a8a5af190811561064c5786937f2a4d238d6465f5f0a52e247bc215437c3b9a0893a517bd4d0fa6a17b95beccce9360a09361061f575b506040519586528860208701528860408701526060860152426080860152600180831b031693a36105ae575b80808380f35b604051604081018181106001600160401b0382111761060b57906001916040528381526020810192338452845260056020526040842090518155019060018060a01b039051166001600160601b0360a01b8254161790555f6105a8565b634e487b7160e01b84526041600452602484fd5b6106409060203d602011610645575b6106388183611a11565b810190611d43565b61057c565b503d61062e565b6040513d89823e3d90fd5b33610491565b61067f915060203d602011610685575b6106778183611a11565b810190611bfb565b5f61042d565b503d61066d565b634e487b7160e01b8c52604160045260248cfd5b6040513d88823e3d90fd5b634e487b7160e01b8e52604160045260248efd5b90915060405193610d8293848601948686106001600160401b0387111761071f57938893610356604094610703948a99986131248b39606089526060890191611dca565b920152039087f080156106a0576001600160a01b031694610382565b634e487b7160e01b8d52604160045260248dfd5b60405162461bcd60e51b815260206004820152601d60248201527f5061726c6179436f72653a20696e76616c6964207369676e61747572650000006044820152606490fd5b634e487b7160e01b8d52601160045260248dfd5b8761022b5760405162461bcd60e51b815260206004820152602a60248201527f5061726c6179436f72653a206d7573742062757920746f6b656e7320666f72206044820152690646576206c6f636b75760b41b6064820152608490fd5b60405162461bcd60e51b815260206004820152602560248201527f5061726c6179436f72653a20696e76616c69642065746865722066656520616e604482015264642062757960d81b6064820152608490fd5b60405162461bcd60e51b815260206004820152601f60248201527f5061726c6179436f72653a20646561646c696e652068617320706173736564006044820152606490fd5b60405162461bcd60e51b815260206004820152602660248201527f5061726c6179436f72653a20746f6b656e206372656174696f6e2069732064696044820152651cd8589b195960d21b6064820152608490fd5b8a80fd5b8980fd5b8380fd5b5080fd5b80fd5b50346108e55760203660031901126108e5576109026119fb565b61090a611dea565b6001600160a01b0316801561095a5781546001600160a01b03198116821783556001600160a01b03167f8be0079c531659141344cd1fd0a4f28419497f9722a3daafe3b4186f6b6457e08380a380f35b631e4fbdf760e01b82526004829052602482fd5b50346108e557806003193601126108e5576020600754604051908152f35b50346108e55760203660031901126108e5576080906040906001600160a01b036109b46119fb565b1681526003602052208054906001810154906003600282015491015491604051938452602084015260408301526060820152f35b5034610ca5576020366003190112610ca5576001600160a01b03610a0a6119fb565b16805f52600360205260405f2060038101670de0b6b3a7640000815411610ca957823b15610ca557604051631d440e7f60e21b81525f8160048183885af18015610c9a57610c83575b50610a75906002610a6a8454600186015490611ca8565b930154905490611b19565b60405163095ea7b360e01b81527f00000000000000000000000000000000000000000000000000000000000000006001600160a01b038116600483015260248201839052909160208360448189895af19081156106a05760609360c492610c66575b5060405163f305d71960e01b815260048101879052602481019190915260448101879052606481018790526001600160a01b037f0000000000000000000000000000000000000000000000000000000000000000811660848301524260a4830152909485938492165af18015610c3057610c3b575b5080825260056020526040822054610bba575b807f4df28f875737f2c9ec404a2796a2876b03f6a058259e112d9b8128793fc98b8e8380a280825260036020528160036040822082815582600182015582600282015501558152600560205280600160408220828155015580f35b8082526005602081815260408085206001015484865292825280852054905163a9059cbb60e01b81526001600160a01b03909316600484015260248301528160448186865af18015610c3057610c11575b50610b5f565b610c299060203d602011610645576106388183611a11565b505f610c0b565b6040513d85823e3d90fd5b606090813d8311610c5f575b610c518183611a11565b810103126108e1575f610b4c565b503d610c47565b610c7e9060203d602011610645576106388183611a11565b610ad7565b610c909194505f90611a11565b5f92610a75610a53565b6040513d5f823e3d90fd5b5f80fd5b60405162461bcd60e51b815260206004820152602f60248201527f546f6b656e7320617265207374696c6c20617661696c61626c65206f6e20746860448201526e6520626f6e6469766520637572766560881b6064820152608490fd5b34610ca5575f366003190112610ca5576020600854604051908152f35b34610ca5576020366003190112610ca5576001600160a01b03610d446119fb565b165f526004602052602060405f2054604051908152f35b34610ca5575f366003190112610ca5576020600a54604051908152f35b34610ca5576060366003190112610ca557610d916119fb565b60243560443591610da660ff600c5416611c1a565b60018060a01b031690815f52600360205260405f2060038101610dda8154610dcf811515611c66565b600284015490611b19565b90610de88354809386611b26565b92610df587851015611cb5565b612710610e0460085486611af2565b0492610e108486611ca8565b978810610f9a5787610e2191611ca8565b600182015411610f55576040516323b872dd60e01b815233600482015230602482015260448101869052936020856064815f8b5af1908115610c9a57610e7f95610e7292610f38575b508254611ca8565b905561050e848254611b19565b6007555f80808086335af13d15610f33573d610e9a81611a32565b90610ea86040519283611a11565b81525f60203d92013e5b15610efc57604051925f8452602084015260408301525f60608301524260808301527f2a4d238d6465f5f0a52e247bc215437c3b9a0893a517bd4d0fa6a17b95beccce60a03393a3005b60405162461bcd60e51b815260206004820152600f60248201526e151c985b9cd9995c8819985a5b1959608a1b6044820152606490fd5b610eb2565b610f509060203d602011610645576106388183611a11565b610e6a565b60405162461bcd60e51b815260206004820152601a60248201527f496e73756666696369656e742065746865722062616c616e63650000000000006044820152606490fd5b60405162461bcd60e51b8152602060048201526024808201527f496e73756666696369656e74206f757470757420616d6f756e742061667465726044820152632066656560e01b6064820152608490fd5b6040366003190112610ca557610fff6119fb565b61100d60ff600c5416611c1a565b60018060a01b0316805f52600360205260405f20906110936003830192835493611038851515611c66565b61050e61271061104a60085434611af2565b04926110568434611ca8565b96611065600283015482611b19565b91610507611076825494858c611b26565b998a94611087602435871015611cb5565b61050285871115611d01565b60075560405163a9059cbb60e01b8152336004820152602481018390526020816044815f865af18015610c9a5761110c575b50604051913483525f60208401525f604084015260608301524260808301527f2a4d238d6465f5f0a52e247bc215437c3b9a0893a517bd4d0fa6a17b95beccce60a03393a3005b6111249060203d602011610645576106388183611a11565b6110c5565b34610ca5575f366003190112610ca557611141611dea565b7facb7eb3561615586819973bbf6a7ab857a798bcd561fc1b2b8486e5fe52a0e066020600c5460ff8082161516809160ff191617600c556040519015158152a1005b34610ca5575f366003190112610ca5576040517f00000000000000000000000000000000000000000000000000000000000000006001600160a01b03168152602090f35b34610ca5575f366003190112610ca557602060ff600c5460081c166040519015158152f35b34610ca5575f366003190112610ca5575f546040516001600160a01b039091168152602090f35b34610ca5576020366003190112610ca55761122c611dea565b600435600855005b34610ca5576020366003190112610ca55761124d6119fb565b6040516315ab88c960e31b8152907f00000000000000000000000000000000000000000000000000000000000000006001600160a01b031690602083600481855afa908115610c9a576004935f926113b9575b506001600160a01b0382811690821610156113b05760209091925b60405163c45a015560e01b815294859182905afa918215610c9a576020935f93611391575b5060405190848201926001600160601b03199060601b1683526001600160601b03199060601b1660348201526028815261131b604882611a11565b51902090604051918383019160ff60f81b83526001600160601b03199060601b16602184015260358301527f96e8ac4277198ff8b6f785478aa9a39f403cb768dd02cbee326c3e7da348845f60558301526055825261137b607583611a11565b905190206040516001600160a01b039091168152f35b6113a9919350843d8611610685576106778183611a11565b91846112e0565b916020906112bb565b6113d391925060203d602011610685576106778183611a11565b90846112a0565b34610ca5575f366003190112610ca5576114766114167f0000000000000000000000000000000000000000000000000000000000000000611f2c565b61143f7f0000000000000000000000000000000000000000000000000000000000000000612052565b6020611484604051926114528385611a11565b5f84525f368137604051958695600f60f81b875260e08588015260e0870190611aa1565b908582036040870152611aa1565b4660608501523060808501525f60a085015283810360c08501528180845192838152019301915f5b8281106114bb57505050500390f35b8351855286955093810193928101926001016114ac565b34610ca5576020366003190112610ca5576004356001600160401b038111610ca5576101206003198236030112610ca55760405161012081018181106001600160401b038211176116615760405281600401356001600160401b038111610ca5576115439060043691850101611a83565b815260248201356001600160401b038111610ca5576115689060043691850101611a83565b602082019081526044830135604083019081526064840135906001600160a01b0382168203610ca5576060840191825260808401906084860135825260a0850160a4870135815260c086019260c4880135845261010460e088019860e48101358a5201358015158103610ca55760209861162a9561029f946101008b019384526115f0611e10565b9a518c815191012099518c815191012096519860018060a01b0390511694519051915192519351151594604051998a988e8a019c8d611d5b565b519020604051908382019261190160f01b84526022830152604282015260428152611656606282611a11565b519020604051908152f35b634e487b7160e01b5f52604160045260245ffd5b34610ca5575f366003190112610ca55761168d611dea565b5f8080806007548181156116cf575b3390f115610c9a575f6007555f7f9800e6f57aeb4360eaa72295a820a4293e1e66fbfcabcd8874ae141304a76deb8180a2005b506108fc61169c565b34610ca5575f366003190112610ca5576116f0611dea565b5f80546001600160a01b0319811682556001600160a01b03167f8be0079c531659141344cd1fd0a4f28419497f9722a3daafe3b4186f6b6457e08280a3005b34610ca5575f366003190112610ca5576040517f00000000000000000000000000000000000000000000000000000000000000006001600160a01b03168152602090f35b34610ca5576020366003190112610ca55761178c6119fb565b611794611dea565b600680546001600160a01b0319166001600160a01b0392909216919091179055005b34610ca5576117c4366119e1565b916117cd611dea565b8060095581600a5582600b557f6b3cd5a375ea94d69f283ae5d03f7db36b8d11c870a1c836e313ce683f37c3e05f80a4005b34610ca5575f366003190112610ca55760206040517f96e8ac4277198ff8b6f785478aa9a39f403cb768dd02cbee326c3e7da348845f8152f35b34610ca5575f366003190112610ca557602060ff600c54166040519015158152f35b34610ca5575f366003190112610ca5576020611875611e10565b604051908152f35b34610ca5575f366003190112610ca5576020600954604051908152f35b34610ca5575f366003190112610ca5576006546040516001600160a01b039091168152602090f35b34610ca5575f366003190112610ca55760206040517f90714f0196fd9246bbbf65551357e09624f6bc2590f3b4a21cf86322420d81378152f35b34610ca5576020366003190112610ca5576001600160a01b0361191d6119fb565b165f5260056020526040805f208054906001808060a01b039101541682519182526020820152f35b34610ca5576020611875611958366119e1565b91611b26565b34610ca5575f366003190112610ca557611976611dea565b7f628860e2faab29b2bacb8e17918261f9fa28c95aae7a5d165d0a412b5af4eb526020600c5461ff0060ff8260081c161560081b169061ff0019161780600c5560ff6040519160081c1615158152a1005b34610ca5575f366003190112610ca557602090600b548152f35b6060906003190112610ca557600435906024359060443590565b600435906001600160a01b0382168203610ca557565b90601f801991011681019081106001600160401b0382111761166157604052565b6001600160401b03811161166157601f01601f191660200190565b929192611a5982611a32565b91611a676040519384611a11565b829481845281830111610ca5578281602093845f960137010152565b9080601f83011215610ca557816020611a9e93359101611a4d565b90565b805180835260209291819084018484015e5f828201840152601f01601f1916010190565b9181601f84011215610ca5578235916001600160401b038311610ca55760208381860195010111610ca557565b81810292918115918404141715611b0557565b634e487b7160e01b5f52601160045260245ffd5b91908201809211611b0557565b9190918015611bb65782151580611bad575b15611b6f57611b4a611b509282611af2565b92611b19565b908115611b5b570490565b634e487b7160e01b5f52601260045260245ffd5b60405162461bcd60e51b8152602060048201526016602482015275496e73756666696369656e74206c697175696469747960501b6044820152606490fd5b50811515611b38565b60405162461bcd60e51b815260206004820152601960248201527f496e73756666696369656e7420696e70757420616d6f756e74000000000000006044820152606490fd5b90816020910312610ca557516001600160a01b0381168103610ca55790565b15611c2157565b60405162461bcd60e51b815260206004820152601f60248201527f5061726c6179436f72653a2074726164696e672069732064697361626c6564006044820152606490fd5b15611c6d57565b60405162461bcd60e51b8152602060048201526013602482015272546f6b656e206e6f7420617661696c61626c6560681b6044820152606490fd5b91908203918211611b0557565b15611cbc57565b60405162461bcd60e51b815260206004820152601a60248201527f496e73756666696369656e74206f757470757420616d6f756e740000000000006044820152606490fd5b15611d0857565b60405162461bcd60e51b8152602060048201526013602482015272426f6e64696e6720637572766520656d70747960681b6044820152606490fd5b90816020910312610ca557518015158103610ca55790565b979491926101209794919a9996936101408a019b7f90714f0196fd9246bbbf65551357e09624f6bc2590f3b4a21cf86322420d81378b5260208b015260408a0152606089015260018060a01b0316608088015260a087015260c086015260e08501526101008401521515910152565b908060209392818452848401375f828201840152601f01601f1916010190565b5f546001600160a01b03163303611dfd57565b63118cdaa760e01b5f523360045260245ffd5b307f00000000000000000000000000000000000000000000000000000000000000006001600160a01b03161480611f03575b15611e6b577f000000000000000000000000000000000000000000000000000000000000000090565b60405160208101907f8b73c3c69bb8fe3d512ecc4cf759cc79239f7b179b0ffacaa9a75d522b39400f82527f000000000000000000000000000000000000000000000000000000000000000060408201527f000000000000000000000000000000000000000000000000000000000000000060608201524660808201523060a082015260a08152611efd60c082611a11565b51902090565b507f00000000000000000000000000000000000000000000000000000000000000004614611e42565b60ff8114611f725760ff811690601f8211611f635760405191611f50604084611a11565b6020808452838101919036833783525290565b632cd44ac360e21b5f5260045ffd5b506040515f6001548060011c9160018216918215612048575b6020841083146120345783855284929081156120155750600114611fb6575b611a9e92500382611a11565b5060015f90815290917fb10e2d527612073b26eecdfd717e6a320cf44b4afac2b0732d9fcbe2b7fa0cf65b818310611ff9575050906020611a9e92820101611faa565b6020919350806001915483858801015201910190918392611fe1565b60209250611a9e94915060ff191682840152151560051b820101611faa565b634e487b7160e01b5f52602260045260245ffd5b92607f1692611f8b565b60ff81146120765760ff811690601f8211611f635760405191611f50604084611a11565b506040515f6002548060011c9160018216918215612118575b60208410831461203457838552849290811561201557506001146120b957611a9e92500382611a11565b5060025f90815290917f405787fa12a823e0f2b7631cc41b3ba8828b3321ca811111fa75cd3aa3bb5ace5b8183106120fc575050906020611a9e92820101611faa565b60209193508060019154838588010152019101909183926120e4565b92607f169261208f565b91907f7fffffffffffffffffffffffffffffff5d576e7357a4501ddfe92f46681b20a08411612199579160209360809260ff5f9560405194855216868401526040830152606082015282805260015afa15610c9a575f516001600160a01b0381161561218f57905f905f90565b505f906001905f90565b5050505f9160039190565b600481101561220457806121b6575050565b600181036121cd5763f645eedf60e01b5f5260045ffd5b600281036121e8575063fce698f760e01b5f5260045260245ffd5b6003146121f25750565b6335e2f38360e21b5f5260045260245ffd5b634e487b7160e01b5f52602160045260245ffdfe60c0806040523461036b57610f0b803803809161001c8285610560565b833981019060808183031261036b5780516001600160401b03811161036b5782610047918301610583565b602082015190926001600160401b03821161036b57610067918301610583565b604082015160609092015183519192916001600160401b03811161047157600354600181811c91168015610556575b602082101461045357601f81116104f3575b50602094601f8211600114610490579481929394955f92610485575b50508160011b915f199060031b1c1916176003555b82516001600160401b03811161047157600454600181811c91168015610467575b602082101461045357601f81116103f0575b506020601f821160011461038d57819293945f92610382575b50508160011b915f199060031b1c1916176004555b600160ff196005541617600555336080526006556040516342f34a5b60e11b8152306004820152602081602481335afa908115610377575f91610331575b5060a052331561031e5761018e816002546105d8565b600255335f525f60205260405f208181540190556040518181525f7fddf252ad1be2c89b69c2b068fc378daa952ba7f163c4a11628f55a4df523b3ef60203393a360ff6005541661020f575b60405161091190816105fa823960805181818160cb015281816102c9015261076e015260a05181818161039f015261073e0152f35b60a0516001600160a01b031633146102a7576080516001600160a01b031633146101da5761024890335f525f60205260405f20546105d8565b60065410610256575f6101da565b60405162461bcd60e51b815260206004820152602360248201527f5472616e736665722065786365656473206d61782077616c6c65742062616c616044820152626e636560e81b6064820152608490fd5b60a460405162461bcd60e51b815260206004820152604460248201527f5472616e736665727320746f20556e697377617020563220706169722061726560448201527f206e6f7420616c6c6f776564207768656e206c696d6974732061726520656e61606482015263189b195960e21b6084820152fd5b63ec442f0560e01b5f525f60045260245ffd5b90506020813d60201161036f575b8161034c60209383610560565b8101031261036b57516001600160a01b038116810361036b575f610178565b5f80fd5b3d915061033f565b6040513d5f823e3d90fd5b015190505f80610125565b601f1982169060045f52805f20915f5b8181106103d8575095836001959697106103c0575b505050811b0160045561013a565b01515f1960f88460031b161c191690555f80806103b2565b9192602060018192868b01518155019401920161039d565b60045f527f8a35acfbc15ff81a39ae7d344fd709f28e8600b4aa8c65c6b64bfe7fe36bd19b601f830160051c81019160208410610449575b601f0160051c01905b81811061043e575061010c565b5f8155600101610431565b9091508190610428565b634e487b7160e01b5f52602260045260245ffd5b90607f16906100fa565b634e487b7160e01b5f52604160045260245ffd5b015190505f806100c4565b601f1982169560035f52805f20915f5b8881106104db575083600195969798106104c3575b505050811b016003556100d9565b01515f1960f88460031b161c191690555f80806104b5565b919260206001819286850151815501940192016104a0565b60035f527fc2575a0e9e593c00f959f8c92f12db2869c3395a3b0502d05e2516446f71f85b601f830160051c8101916020841061054c575b601f0160051c01905b81811061054157506100a8565b5f8155600101610534565b909150819061052b565b90607f1690610096565b601f909101601f19168101906001600160401b0382119082101761047157604052565b81601f8201121561036b578051906001600160401b03821161047157604051926105b7601f8401601f191660200185610560565b8284526020838301011161036b57815f9260208093018386015e8301015290565b919082018092116105e557565b634e487b7160e01b5f52601160045260245ffdfe6080806040526004361015610012575f80fd5b5f3560e01c90816306fdde031461058a57508063095ea7b31461050857806318160ddd146104eb57806323b872dd1461040b578063313ce567146103f05780633582ad23146103ce57806349bd5a5e1461038a57806370a0823114610353578063751039fc146102b757806395d89b411461019c578063a9059cbb1461016b578063bbde77c11461014e578063dd62ed3e146100fe5763f8c298c3146100b6575f80fd5b346100fa575f3660031901126100fa576040517f00000000000000000000000000000000000000000000000000000000000000006001600160a01b03168152602090f35b5f80fd5b346100fa5760403660031901126100fa57610117610683565b61011f610699565b6001600160a01b039182165f908152600160209081526040808320949093168252928352819020549051908152f35b346100fa575f3660031901126100fa576020600654604051908152f35b346100fa5760403660031901126100fa57610191610187610683565b60243590336106af565b602060405160018152f35b346100fa575f3660031901126100fa576040515f6004548060011c906001811680156102ad575b6020831081146102995782855290811561027d5750600114610228575b50819003601f01601f191681019067ffffffffffffffff8211818310176102145761021082918260405282610659565b0390f35b634e487b7160e01b5f52604160045260245ffd5b905060045f527f8a35acfbc15ff81a39ae7d344fd709f28e8600b4aa8c65c6b64bfe7fe36bd19b5f905b828210610267575060209150820101826101e0565b6001816020925483858801015201910190610252565b90506020925060ff191682840152151560051b820101826101e0565b634e487b7160e01b5f52602260045260245ffd5b91607f16916101c3565b346100fa575f3660031901126100fa577f00000000000000000000000000000000000000000000000000000000000000006001600160a01b03163303610303576005805460ff19169055005b60405162461bcd60e51b815260206004820152602260248201527f4f6e6c7920666163746f72792063616e2072656d6f766520616e74692d7768616044820152616c6560f01b6064820152608490fd5b346100fa5760203660031901126100fa576001600160a01b03610374610683565b165f525f602052602060405f2054604051908152f35b346100fa575f3660031901126100fa576040517f00000000000000000000000000000000000000000000000000000000000000006001600160a01b03168152602090f35b346100fa575f3660031901126100fa57602060ff600554166040519015158152f35b346100fa575f3660031901126100fa57602060405160128152f35b346100fa5760603660031901126100fa57610424610683565b61042c610699565b6001600160a01b0382165f81815260016020818152604080842033855290915290912054919360443593929091810161046b575b5061019193506106af565b8381106104d05784156104bd5733156104aa57610191945f52600160205260405f2060018060a01b0333165f526020528360405f209103905584610460565b634a1406b160e11b5f525f60045260245ffd5b63e602df0560e01b5f525f60045260245ffd5b8390637dc7a0d960e11b5f523360045260245260445260645ffd5b346100fa575f3660031901126100fa576020600254604051908152f35b346100fa5760403660031901126100fa57610521610683565b6024359033156104bd576001600160a01b03169081156104aa57335f52600160205260405f20825f526020528060405f20556040519081527f8c5be1e5ebec7d5bd14f71427d1e84f3dd0314c0f7b2291e5b200ac8c7c3b92560203392a3602060405160018152f35b346100fa575f3660031901126100fa575f6003548060011c9060018116801561064f575b6020831081146102995782855290811561027d57506001146105fa5750819003601f01601f191681019067ffffffffffffffff8211818310176102145761021082918260405282610659565b905060035f527fc2575a0e9e593c00f959f8c92f12db2869c3395a3b0502d05e2516446f71f85b5f905b828210610639575060209150820101826101e0565b6001816020925483858801015201910190610624565b91607f16916105ae565b602060409281835280519182918282860152018484015e5f828201840152601f01601f1916010190565b600435906001600160a01b03821682036100fa57565b602435906001600160a01b03821682036100fa57565b6001600160a01b03169081156108c8576001600160a01b03169081156108b557805f525f60205260405f205483811061089b5790838392825f525f6020520360405f2055815f525f60205260405f208481540190557fddf252ad1be2c89b69c2b068fc378daa952ba7f163c4a11628f55a4df523b3ef6020604051868152a360ff6005541661073c575050565b7f00000000000000000000000000000000000000000000000000000000000000006001600160a01b03168114610824577f00000000000000000000000000000000000000000000000000000000000000006001600160a01b031681036107a0575050565b5f525f60205260405f205490810180911161081057600654106107bf57565b60405162461bcd60e51b815260206004820152602360248201527f5472616e736665722065786365656473206d61782077616c6c65742062616c616044820152626e636560e81b6064820152608490fd5b634e487b7160e01b5f52601160045260245ffd5b60a460405162461bcd60e51b815260206004820152604460248201527f5472616e736665727320746f20556e697377617020563220706169722061726560448201527f206e6f7420616c6c6f776564207768656e206c696d6974732061726520656e61606482015263189b195960e21b6084820152fd5b915063391434e360e21b5f5260045260245260445260645ffd5b63ec442f0560e01b5f525f60045260245ffd5b634b637e8f60e11b5f525f60045260245ffdfea2646970667358221220107b261ca09d6c5d6020e0190b165f38e9c25ef85a21f9d639e21b9ed6c16db664736f6c634300081a003360c080604052346102e757610d82803803809161001c82856104da565b83398101906060818303126102e75780516001600160401b0381116102e757826100479183016104fd565b60208201519092906001600160401b0381116102e75760409161006b9184016104fd565b91015182516001600160401b0381116103eb57600354600181811c911680156104d0575b60208210146103cd57601f811161046d575b506020601f821160011461040a57819293945f926103ff575b50508160011b915f199060031b1c1916176003555b81516001600160401b0381116103eb57600454600181811c911680156103e1575b60208210146103cd57601f811161036a575b50602092601f821160011461030957928192935f926102fe575b50508160011b915f199060031b1c1916176004555b600160ff196005541617600555336080526040516342f34a5b60e11b8152306004820152602081602481335afa9081156102f3575f916102ad575b5060a052331561029a5760025481810180911161028657600255335f525f60205260405f208181540190556040519081525f7fddf252ad1be2c89b69c2b068fc378daa952ba7f163c4a11628f55a4df523b3ef60203393a360ff600554166101fd575b60405161082f9081610553823960805181818160c001526102a1015260a05181818161037701526107140152f35b60a0516001600160a01b031633036101cf5760a460405162461bcd60e51b815260206004820152604460248201527f5472616e736665727320746f20556e697377617020563220706169722061726560448201527f206e6f7420616c6c6f776564207768656e206c696d6974732061726520656e61606482015263189b195960e21b6084820152fd5b634e487b7160e01b5f52601160045260245ffd5b63ec442f0560e01b5f525f60045260245ffd5b90506020813d6020116102eb575b816102c8602093836104da565b810103126102e757516001600160a01b03811681036102e7575f61016c565b5f80fd5b3d91506102bb565b6040513d5f823e3d90fd5b015190505f8061011c565b601f1982169360045f52805f20915f5b868110610352575083600195961061033a575b505050811b01600455610131565b01515f1960f88460031b161c191690555f808061032c565b91926020600181928685015181550194019201610319565b60045f527f8a35acfbc15ff81a39ae7d344fd709f28e8600b4aa8c65c6b64bfe7fe36bd19b601f830160051c810191602084106103c3575b601f0160051c01905b8181106103b85750610102565b5f81556001016103ab565b90915081906103a2565b634e487b7160e01b5f52602260045260245ffd5b90607f16906100f0565b634e487b7160e01b5f52604160045260245ffd5b015190505f806100ba565b601f1982169060035f52805f20915f5b8181106104555750958360019596971061043d575b505050811b016003556100cf565b01515f1960f88460031b161c191690555f808061042f565b9192602060018192868b01518155019401920161041a565b60035f527fc2575a0e9e593c00f959f8c92f12db2869c3395a3b0502d05e2516446f71f85b601f830160051c810191602084106104c6575b601f0160051c01905b8181106104bb57506100a1565b5f81556001016104ae565b90915081906104a5565b90607f169061008f565b601f909101601f19168101906001600160401b038211908210176103eb57604052565b81601f820112156102e7578051906001600160401b0382116103eb5760405192610531601f8401601f1916602001856104da565b828452602083830101116102e757815f9260208093018386015e830101529056fe6080806040526004361015610012575f80fd5b5f3560e01c90816306fdde031461056257508063095ea7b3146104e057806318160ddd146104c357806323b872dd146103e3578063313ce567146103c85780633582ad23146103a657806349bd5a5e1461036257806370a082311461032b578063751039fc1461028f57806395d89b4114610174578063a9059cbb14610143578063dd62ed3e146100f35763f8c298c3146100ab575f80fd5b346100ef575f3660031901126100ef576040517f00000000000000000000000000000000000000000000000000000000000000006001600160a01b03168152602090f35b5f80fd5b346100ef5760403660031901126100ef5761010c61065b565b610114610671565b6001600160a01b039182165f908152600160209081526040808320949093168252928352819020549051908152f35b346100ef5760403660031901126100ef5761016961015f61065b565b6024359033610687565b602060405160018152f35b346100ef575f3660031901126100ef576040515f6004548060011c90600181168015610285575b602083108114610271578285529081156102555750600114610200575b50819003601f01601f191681019067ffffffffffffffff8211818310176101ec576101e882918260405282610631565b0390f35b634e487b7160e01b5f52604160045260245ffd5b905060045f527f8a35acfbc15ff81a39ae7d344fd709f28e8600b4aa8c65c6b64bfe7fe36bd19b5f905b82821061023f575060209150820101826101b8565b600181602092548385880101520191019061022a565b90506020925060ff191682840152151560051b820101826101b8565b634e487b7160e01b5f52602260045260245ffd5b91607f169161019b565b346100ef575f3660031901126100ef577f00000000000000000000000000000000000000000000000000000000000000006001600160a01b031633036102db576005805460ff19169055005b60405162461bcd60e51b815260206004820152602260248201527f4f6e6c7920666163746f72792063616e2072656d6f766520616e74692d7768616044820152616c6560f01b6064820152608490fd5b346100ef5760203660031901126100ef576001600160a01b0361034c61065b565b165f525f602052602060405f2054604051908152f35b346100ef575f3660031901126100ef576040517f00000000000000000000000000000000000000000000000000000000000000006001600160a01b03168152602090f35b346100ef575f3660031901126100ef57602060ff600554166040519015158152f35b346100ef575f3660031901126100ef57602060405160128152f35b346100ef5760603660031901126100ef576103fc61065b565b610404610671565b6001600160a01b0382165f818152600160208181526040808420338552909152909120549193604435939290918101610443575b506101699350610687565b8381106104a857841561049557331561048257610169945f52600160205260405f2060018060a01b0333165f526020528360405f209103905584610438565b634a1406b160e11b5f525f60045260245ffd5b63e602df0560e01b5f525f60045260245ffd5b8390637dc7a0d960e11b5f523360045260245260445260645ffd5b346100ef575f3660031901126100ef576020600254604051908152f35b346100ef5760403660031901126100ef576104f961065b565b602435903315610495576001600160a01b031690811561048257335f52600160205260405f20825f526020528060405f20556040519081527f8c5be1e5ebec7d5bd14f71427d1e84f3dd0314c0f7b2291e5b200ac8c7c3b92560203392a3602060405160018152f35b346100ef575f3660031901126100ef575f6003548060011c90600181168015610627575b6020831081146102715782855290811561025557506001146105d25750819003601f01601f191681019067ffffffffffffffff8211818310176101ec576101e882918260405282610631565b905060035f527fc2575a0e9e593c00f959f8c92f12db2869c3395a3b0502d05e2516446f71f85b5f905b828210610611575060209150820101826101b8565b60018160209254838588010152019101906105fc565b91607f1691610586565b602060409281835280519182918282860152018484015e5f828201840152601f01601f1916010190565b600435906001600160a01b03821682036100ef57565b602435906001600160a01b03821682036100ef57565b6001600160a01b03169081156107e6576001600160a01b03169182156107d357815f525f60205260405f20548181106107ba5760208284937fddf252ad1be2c89b69c2b068fc378daa952ba7f163c4a11628f55a4df523b3ef9387965f525f84520360405f2055845f525f825260405f20818154019055604051908152a360ff600554166107125750565b7f00000000000000000000000000000000000000000000000000000000000000006001600160a01b03161461074357565b60a460405162461bcd60e51b815260206004820152604460248201527f5472616e736665727320746f20556e697377617020563220706169722061726560448201527f206e6f7420616c6c6f776564207768656e206c696d6974732061726520656e61606482015263189b195960e21b6084820152fd5b8263391434e360e21b5f5260045260245260445260645ffd5b63ec442f0560e01b5f525f60045260245ffd5b634b637e8f60e11b5f525f60045260245ffdfea2646970667358221220c44fca5383046c65ab11159dde8ee3adf69f17b56cd4b2750a774b081f6f36b664736f6c634300081a0033a2646970667358221220a6a33191cf1e08d62c09575a278b23a66297ff467d57fb09baf44c5108b6fb3c64736f6c634300081a0033","linkReferences":{}},"methodIdentifiers":{"CREATE_TYPEHASH()":"11ba1741","DOMAIN_SEPARATOR()":"3644e515","INIT_CODE_PAIR_HASH()":"5855a25a","burnAddress()":"70d5ae05","createToken(string,string,uint256,uint256,uint256,uint256,bool,uint8,bytes32,bytes32)":"f8848346","creatorLocks(address)":"0fbf34af","eip712Domain()":"84b0196e","etherFeeBalance()":"e5a238ec","flipTokenCreationEnabled()":"030858d8","flipTradingEnabled()":"b6340fdd","getAmountOut(uint256,uint256,uint256)":"054d50d4","getCreateTokenRequestTypedDataHash((string,string,uint256,address,uint256,uint256,uint256,uint256,bool))":"789e221f","getPairAddress(address)":"85e694b6","initialTokensForBondingCurveBalance()":"017c7485","initialTokensForUniswapBalance()":"da72f558","initialVirtualEtherBalance()":"24b26907","owner()":"8da5cb5b","renounceOwnership()":"715018a6","seedLiquidity(address)":"e0a6604a","setSigner(address)":"6c19e783","setTokenInitializer(uint256,uint256,uint256)":"6559ea84","setTradingFeeBasisPoints(uint256)":"8cedc5ad","signatureNonces(address)":"dbd8483d","signer()":"238ac933","swapExactETHForTokens(address,uint256)":"b79c48e5","swapExactTokensForETH(address,uint256,uint256)":"c038847a","tokenCreationEnabled()":"948f32c2","tokens(address)":"e4860339","tradingEnabled()":"4ada218b","tradingFeeBasisPoints()":"dfd41edf","transferOwnership(address)":"f2fde38b","uniswapV2Router02()":"a7c6402c","withdrawEtherFee()":"73df6162"},"id":42}